S00D000046696E616C2E737265632D
S11300000C9444000C9461000C9461000C94610005
S11300100C9461000C9461000C9461000C946100D8
S11300200C9461000C9461000C9461000C946100C8
S11300300C9461000C9461000C9461000C946100B8
S11300400C9461000C9461000C9461000C946100A8
S11300500C9461000C9461000C9461000C94610098
S11300600C9461000C9461007E031B0381031E0346
S1130070780318037B032103A203A703AC03B10392
S1130080B603BB03C003C50311241FBECFEFD8E0E2
S1130090DEBFCDBF11E0A0E0B1E0E0ECF8E002C0CB
S11300A005900D92A031B107D9F721E0A0E1B1E0AC
S11300B001C01D92AE31B207E1F70E94CE010C944B
S11300C05E040C9400002C9898E0882314F42D9A74
S11300D001C02D98880F2C9A2C989150B1F708954F
S11300E0289A289A289808950E9463002D980E94BF
S11300F0700085ED8A95F1F7000008950E94630071
S11301002D9A0E9470008AEE8A95F1F700C0089536
S11301100E947E0080E090E0089582E00E947400D6
S11301208FE39FE10197F1F700C00000089581E398
S113013084B980E091E090931B0180931A012FEF22
S113014086E791E0215080409040E1F700C0000034
S113015088E30E94740088E00E94740081E00E9499
S113016074008FE39FE10197F1F700C0000086E07F
S11301700E9474000E948D008CE00E947400089517
S1130180ECE7F0E09081907F90839081892B8083CD
S1130190EAE7F0E0808180648083808186FDFDCF82
S11301A08091780090917900089580E480937C0098
S11301B087E880937A000895EDE6F0E08081806F0F
S11301C08083E8E6F0E0808184608083E9E6F0E003
S11301D08081856080838DB383608DBB789408951E
S11301E08AB18F788AB98AB1837F8AB98BB18FEF4C
S11301F08BB9089563E081E00E940B0363E082E021
S11302000E940B0363E083E00E940B0363E084E03D
S11302100E940B0363E085E00E940B03FFCFEF9283
S1130220FF920F931F93CF93C82F7B018FEF8C0FF7
S1130230833018F400E012E002C000E010E062E055
S11302408C2F0E940B03A70160E070E08C2F0E94AA
S113025086038C2F0E94C00080179107D4F363E0BB
S11302608C2F0E940B03CF911F910F91FF90EF9061
S113027008950F931F93CF938B01813021F0833026
S113028021F4C5E003C0C4E001C0C0E062E08C2FEB
S11302900E940B03A80160E070E08C2F0E9486038B
S11302A0CF911F910F910895823089F08330E1F04E
S11302B0813031F580911401811122C080911101A6
S11302C081111EC0809110018823A1F308958091AB
S11302D01301811115C080911101811111C0809108
S11302E010018823A1F3089580911201811108C09F
S11302F080911101811104C0809110018823A1F320
S113030008950F931F93CF938B01813021F0833095
S113031021F4C5E003C0C4E001C0C0E061E08C2F5B
S11303200E940B03A80160E070E08C2F0E948603FA
S1130330CF911F910F910895EF92FF920F931F9306
S1130340CF93C82F7B018FEF8C0F833018F400E01C
S113035012E002C000E010E063E084E00E940B03BE
S113036063E085E00E940B0361E08C2F0E940B0385
S1130370A70160E070E08C2F0E9486038C2F0E94FE
S1130380C00008171907D4F363E08C2F0E940B03F5
S1130390CF911F910F91FF90EF9008950E949700C5
S11303A00E9410040E94D50083E00E94E5030E948D
S11303B0DC000E94F00060E081E00E940B0360E03A
S11303C082E00E940B0360E083E00E940B0360E084
S11303D084E00E940B0360E085E00E940B03C3E00D
S11303E080910E01823009F456C0833009F48CC028
S11303F08130C1F780911601813019F48093150181
S113040004C0811102C0C09315016FEF71E08091A7
S113041015010E940F016FEF71E0809115010E9498
S1130420390181E00E94540180911401882351F024
S11304306FEF71E0809115010E949C0182E080932E
S11304400E01CECF80911101811104C08091100161
S1130450882331F26FEF71E0809115010E948101D0
S113046081E00E94540180911401882349F06FEFC8
S113047071E0809115010E949C0110921601B0CF89
S113048080911101811105C080911001882309F424
S1130490A7CF0E94FA006FEF71E082E00E940F0183
S11304A080911601813051F46FEF71E00E94810157
S11304B06FEF71E08C2F0E9439010CC081110AC0CA
S11304C06FEF71E08C2F0E9481016FEF71E081E08A
S11304D00E94390182E00E94540180911301882313
S11304E041F06FEF71E082E00E949C01C0930E0125
S11304F077CF80911101811105C08091100188236B
S113050009F46ECF0E94FA0080911601813021F423
S113051082E08093150105C0811103C081E08093BE
S113052015016FEF71E0809115010E940F016FEFCB
S113053071E0809115010E9439018C2F0E945401B1
S113054080911201882351F06FEF71E080911501C1
S11305500E949C0181E080930E0142CF80911101A1
S1130560811105C080911001882309F439CF0E94BC
S1130570FA00611110C021E030E0A90102C0440F6B
S1130580551F8A95E2F7CA01809590911701892336
S11305908093170110C0613071F421E030E0A901AB
S11305A002C0440F551F8A95E2F7CA0190911701C2
S11305B0892B8093170180E70E941604809117010C
S11305C00E9446040E943D040895CF93DF93D82FE0
S11305D0C62F80EC0E9416048D2F0E944604C11180
S11305E00AC080E00E94460480E00E94460480E144
S11305F00E9446040BC0C13049F480E10E944604C5
S113060080E00E94460480E00E9446040E943D046B
S1130610DF91CF910895CF93962F482F50E0FA01A0
S11306203197E830F10580F4EC5CFF4F0C945804EA
S1130630C3E082E036C0C7E383E30AC0CFE18BE1C5
S113064007C0C7E086E02DC0853048F5C0E080E0F3
S1130650923029F0933099F09130C9F408C060E0E9
S11306600E94E50261E08C2F0E94E5024DC061E02A
S11306700E94E50260E08C2F0E94E50245C061E023
S11306800E94E50261E08C2F0E94E5023DC060E01B
S11306900E94E50260E08C2F0E94E50235C0C0E0B4
S11306A080E0923029F0933099F09130C9F408C079
S11306B060E00E94B90261E08C2F0E94B90224C05C
S11306C061E00E94B90260E08C2F0E94B9021CC054
S11306D061E00E94B90261E08C2F0E94B90214C04B
S11306E060E00E94B90260E08C2F0E94B9020CC045
S11306F0C1E080E0D6CFC5E084E0D3CFCBE28FE287
S1130700A7CFC3E187E1A4CFCF910895FF920F93C0
S11307101F93CF93DF938B01EA016115704110F0B1
S113072000E010E0C11590E1D90710F0C0E0D0E07E
S113073090E0FC013197E830F10560F5E45CFF4F8F
S11307400C9458040F2EF6E2FF2EF02D24C00F2E29
S1130750FAE3FF2EF02D1FC00F2EFEE0FF2EF02D2A
S11307601AC00F2EF2E2FF2EF02D15C00F2EF6E068
S1130770FF2EF02D10C00F2EFAE0FF2EF02D0BC02F
S11307800F2EFEE3FF2EF02D06C00F2EF2E4FF2EF7
S1130790F02D01C0F12C80EC0E9416048F2D0E94D4
S11307A04604802F0E944604812F0E9446048C2F09
S11307B00E9446048D2F0E9446040E943D04DF914E
S11307C0CF911F910F91FF900895CF93C82F80EC84
S11307D00E94160480E00E94460480E30E944604BE
S11307E00E943D0480EC0E9416048EEF0E94460491
S11307F08C2F0E94460480EC0E94160480E00E9424
S1130800460480E20E9446040E943D0480E70E9460
S1130810160480E00E9446040E943D04CF9108958E
S11308201092B90088E48093B800089594EA9093F4
S1130830BC00ECEBF0E090819923ECF79091B900C7
S1130840987F983011F09031A1F48093BB0084E834
S11308508093BC00ECEBF0E080818823ECF790916E
S1130860B900987F983139F081E0903429F480E020
S1130870089581E0089580E0089584E98093BC00A0
S1130880ECEBF0E0808184FDFDCF08958093BB0004
S113089084E88093BC00ECEBF0E080818823ECF7E3
S11308A09091B900987F81E0983209F480E008952E
S11308B0EE0FFF1F0590F491E02D0994F894FFCFFB
S11308C00000000200000000880000000000010099
S9030000FC
